:04000000B1EF7FF0ED
:10FF62000001B9EF7FF0000E926E000E966E120045
:10FF7200B4EC7FF0DBEC7FF0FDD7011E01503F0BAC
:10FF8200896E01AC03D08D50010902D08D50FE0B59
:10FF92008D6E01AE03D08D50020902D08D50FD0B43
:10FFA2008D6EF70E026EBF0EE82EFED7022EFCD724
:10FFB20000D01200036E010E056E0350036E000E98
:10FFC200046E035005C001F0BEEC7FF00550800ABC
:10FFD200D8A404D0036E010E046E03500504D8A405
:10FFE20004D0036E000E046E03500450D8B403D044
:0EFFF200D890053002D005500524056EE3D7E7
:020000040020DA
:08000000FFFFFFFFFFFFFFFF00
:020000040030CA
:0E000000FF211F3CFFBF85FF0FC00FE00F4028
:00000001FF
