:04000000C2EF7FF0DC
:10FF84000001CAEF7FF0000E926E000E966E120012
:10FF9400C5EC7FF0E3EC7FF0FDD701C089FF01AC35
:10FFA40003D08D50010902D08D50FE0B8D6E01AE31
:10FFB40004D08D5002098D6E12008D50FD0B8D6E94
:10FFC4001200026E0F0E016E0250CFEC7FF0F70E9E
:10FFD400026EBF0EE82EFED7022EFCD700D0026EB2
:10FFE400000E016E0250CFEC7FF0F70E026EBF0ED2
:0CFFF400E82EFED7022EFCD700D0120031
:020000040020DA
:08000000FFFFFFFFFFFFFFFF00
:020000040030CA
:0E000000FF211F3CFFBF85FF0FC00FE00F4028
:00000001FF
