:04000000A3EF7FF0FB
:10FF46000001B8EF7FF0F29204D0FA0E00F0E82E2E
:10FF5600FDD7F2B21200F9D7F292010EE8EC7FF06B
:10FF6600066EA6EC7FF006501200C1EC7FF0AFECF7
:10FF76007FF0086E0850D9EC7FF0FCD7000E926E29
:10FF860093680F010F013991F18CF292F28E1200F3
:10FF9600E8CF02F0021E02C089FF210E016E760E26
:10FFA600E82EFED7012EFCD700D01200E8CF06F0CF
:10FFB600F2920650E8EC7FF0076EA6EC7FF0075051
:10FFC600E8EC7FF0A6EC7FF01200E8CF05F0F292A5
:10FFD60010D00550CBEC7FF005500524056E05507A
:10FFE600400AD8A404D0036E010E056E035005C066
:0AFFF60004F0F2A2EED7045012004E
:020000040020DA
:08000000FFFFFFFFFFFFFFFF00
:020000040030CA
:0E000000FF211F3CFFBF81FF0FC00FE00F402C
:00000001FF
