:04000000F2EF10F01B
:1010000000803F72313FFE753E58633D951D3CC5E3
:10101000AE3A79213994803793A7355615340000BC
:101020000000803FF0FFBEE2A93E8376BEAE2B3EBD
:101030003CC3BDD2133D78D3BB007F0E5214511078
:101040005010D8A407D0000E506E800E516E3F0E87
:10105000526E1200720E016E310E026E440E036E5D
:1010600050C004F051C005F052C006F02AEC0FF059
:10107000D8B00ED0000E000100017D6F220E0001DD
:101080007C6FFF0E506E7F0E516E7F0E526E1200FF
:1010900050C001F051C002F052C003F0490E046E7E
:1010A0003A0E056EC40E066E2AEC0FF0D8B00ED0C4
:1010B000000E000100017D6F220E00017C6F000E0A
:1010C000506E000E516E000E526E12005250800A89
:1010D000800F05E1000E515C02E1000E505CD8B0BB
:1010E00002D0010E01D0000E586E5850D8B40ED068
:1010F00050C001F051C002F052C003F0DFEC10F01C
:1011000003C052F002C051F001C050F0000E2F6E2B
:10111000500E2E6EAA0E306EB80E316E3F0E326E2D
:101120006EEC10F050C03CF051C03DF052C03EF0AB
:10113000FBEC0CF03EC055F03DC054F03CC053F009
:1011400053C009F054C00AF055C00BF07AEC0CF013
:1011500009C056F00AC057F0000E436E500E426EA2
:1011600056C018F057C019F02EEC10F01AC046F017
:1011700019C045F018C044F050EC10F050C03CF0DD
:1011800051C03DF052C03EF0100E406E000E3F6E5A
:10119000000E426E090E416EE8EC0DF03EC00BF001
:1011A0003DC00AF03CC009F056C00CF057C00DF02D
:1011B00073EC0DF00BC052F00AC051F009C050F0B2
:1011C0005850D8B426D0FF0E50187F0ED8B45118FE
:1011D0007F0ED8B45218D8A407D0000E506E000E5F
:1011E000516E000E526E1200000E096E800E0A6ED5
:1011F0003F0E0B6E50C00CF051C00DF052C00EF0FF
:10120000F5EC0BF00BC052F00AC051F009C050F0E1
:10121000120050C050F051C051F052C052F01200B4
:101220000F0E346E2EC035F02FC036F030C037F0C0
:101230003428386E04D0D890373236323532382ED2
:10124000FAD735503B6E0F0E346E31C035F032C0D8
:1012500036F033C037F03428386E04D0D8903732A7
:1012600036323532382EFAD735503A6E3B50D8B434
:101270000BD03A503B600FD03B5000083A24346EFC
:10128000190E345CD8A007D031C02EF032C02FF038
:1012900033C030F012003A50D8B40BD03B503A6013
:1012A0000FD03A5000083B24346E190E345CD8A09D
:1012B00007D02EC02EF02FC02FF030C030F012001B
:1012C000346E060E396E345030BE398E33BE398CD2
:1012D0002F8EFF0E2E16FF0E2F16000E3016328E9A
:1012E000FF0E3116FF0E3216000E33163A503B60D9
:1012F00018D0D8903136323633363A063A503B1849
:10130000D8B40BD039063950070BD8B406D0F1D772
:10131000D89030322F322E323B2A3A503B62F8D7E7
:101320001AD03B503A6017D0D8902E362F36303630
:101330003B063A503B18D8B40BD039063950070B4E
:10134000D8B406D0F1D7D8903332323231323A2A7B
:101350003A503B62F8D739AE0CD0FF0E2E1AFF0E72
:101360002F1AFF0E301A010E2E26000E2F22000E0D
:10137000302239AC0CD0FF0E311AFF0E321AFF0E9C
:10138000331A010E3126000E3222000E3322346E43
:10139000000E396E34502E5031262F5032223050EC
:1013A000332233AE10D0FF0E311AFF0E321AFF0E69
:1013B000331A010E3126000E3222000E3322346E13
:1013C000010E396E345031C001F032C002F033C02A
:1013D00003F03BC004F039C005F0CEEC0EF003C0C2
:1013E00030F002C02FF001C02EF012005F6E000E30
:1013F00000010001666F5F507F0E5B145A10591098
:10140000D8A41ED0000E016E000E026E000E036EF8
:101410005CC004F05DC005F05EC006F02AEC0FF081
:10142000D8A007D0000E000100017D6F210E000141
:101430007C6F000E596E000E5A6E000E5B6E12002D
:101440007F0E5E145D105C10D8A407D0000E596E9C
:10145000800E5A6E3F0E5B6E12005B50800A800F4A
:1014600005E1000E5A5C02E1000E595CD8B047D08D
:101470005CC009F05DC00AF05EC00BF07AEC0CF0C5
:101480000CC06AF00BC069F00AC068F009C067F0D0
:1014900067C009F068C00AF069C00BF06AC00CF0C0
:1014A000FCEC0FF05E500B1805E15D500A1802E1EC
:1014B0005C500918D8B40ED0000E000100017D6FF9
:1014C000210E00017C6F000E596E000E5A6E000E48
:1014D0005B6E1200000100016751010B0001000169
:1014E000666F59C001F05AC002F05BC003F0DFEC38
:1014F00010F003C05BF002C05AF001C059F059C0AF
:101500004BF05AC04CF05BC04DF0CAEC0AF04DC035
:1015100062F04CC061F04BC060F060C01DF061C073
:101520001EF062C01FF05CC020F05DC021F05EC004
:1015300022F067EC0BF01FC065F01EC064F01DC008
:1015400063F063C050F064C051F065C052F01DEC10
:1015500008F052C05BF051C05AF050C059F0000181
:1015600000016651D8B40FD059C001F05AC002F042
:101570005BC003F0DFEC10F003C05BF002C05AF078
:1015800001C059F0120059C059F05AC05AF05BC05E
:101590005BF012004D50800A800F05E1000E4C5C9C
:1015A00002E1000E4B5CD8B00ED0000E000100012D
:1015B0007D6F210E00017C6F000E4B6E000E4C6E95
:1015C000000E4D6E12007F0E4D144C104B10D8A41F
:1015D0000ED0000E000100017D6F220E00017C6F15
:1015E000000E4B6E000E4C6E000E4D6E1200000E83
:1015F000206E000E216E400E226E000E056E4E0E05
:10160000046E4BC001F04CC002F04DC003F072EC10
:101610000FF003C01FF002C01EF001C01DF067EC08
:101620000BF01FC030F01EC02FF01DC02EF0000EBA
:10163000316E800E326EBF0E336E10EC09F030C08A
:101640004DF02FC04CF02EC04BF04E06D8A04F06E8
:101650004BC03CF04CC03DF04DC03EF0100E406E13
:101660001E0E3F6E000E426E080E416EE8EC0DF04D
:101670003EC04DF03DC04CF03CC04BF0720E206EB1
:10168000310E216E3F0E226E4EC018F04FC019F081
:101690002EEC10F01AC01FF019C01EF018C01DF07B
:1016A00067EC0BF01FC030F01EC02FF01DC02EF0F5
:1016B0004BC031F04CC032F04DC033F010EC09F0AB
:1016C00030C04DF02FC04CF02EC04BF012000F0E6A
:1016D000236E1DC024F01EC025F01FC026F0232855
:1016E000276E04D0D890263225322432272EFAD7FE
:1016F0002450286E286607D0000E1D6E000E1E6E48
:10170000000E1F6E12000F0E236E20C024F021C0A9
:1017100025F022C026F02328276E04D0D890263248
:1017200025322432272EFAD724502D6E2D6607D06D
:10173000000E1D6E000E1E6E000E1F6E12002D504C
:101740007B0F28261FC02DF022502D1A800E2D163B
:101750001E8E218EFF0E2016FF0E2116000E221661
:10176000000E296E000E2A6E000E2B6E236E070EE1
:101770002C6E23501DA006D02050292621502A224D
:1017800022502B22D8901F321E321D32D890203684
:10179000213622362C2EEED7236E090E2C6E2350C6
:1017A0001DA006D02050292621502A2222502B226B
:1017B000D8901F321E321D32D8902B322A32293255
:1017C0002C2EEED729C001F02AC002F02BC003F066
:1017D00028C004F02DC005F0CEEC0EF003C01FF0C1
:1017E00002C01EF001C01DF012000F0E0F6E09C0E6
:1017F00010F00AC011F00BC012F00F28136E04D0C5
:10180000D890123211321032132EFAD71050186EAF
:10181000186607D0000E096E000E0A6E000E0B6EE1
:1018200012000F0E0F6E0CC010F00DC011F00EC0A4
:1018300012F00F28136E04D0D890123211321032E9
:10184000132EFAD71050196E196607D0000E096EC4
:10185000000E0A6E000E0B6E1200000E156E000ECA
:10186000166E000E176E1950890F185E0BC019F016
:101870000E50191A800E19160A8EFF0E0916FF0E49
:101880000A16000E0B160D8EFF0E0C16FF0E0D160F
:10189000000E0E160F6E180E146E0F50D8901536DF
:1018A000163617360C50095C0D500A580E500B585E
:1018B000D8A007D00C50095E0D500A5A0E500B5A92
:1018C0001580D89009360A360B36142EE7D715C086
:1018D00001F016C002F017C003F018C004F019C0E0
:1018E00005F0CEEC0EF003C00BF002C00AF001C010
:1018F00009F012000F0E0D6E09C00EF00AC00FF0B5
:101900000BC010F00D28116E04D0D89010320F3299
:101910000E32112EFAD70E50176E176609D0000E30
:10192000096E000E0A6E000E0B6E000E0C6E120099
:10193000170E0D6E09C00EF00AC00FF00BC010F0AC
:101940000D28116E04D0D89010320F320E32112EA5
:10195000FAD70E50126E0A8EFF0E0916FF0E0A16E7
:10196000000E0B160950136E0A50146E0B50156EB4
:10197000166A8E0E175E17AE16D01750800A8F0F9C
:10198000D8B009D0000E096E000E0A6E000E0B6E64
:10199000000E0C6E1200D89016321532143213322B
:1019A000173EF9D714D0170E17640FD0000E096E2A
:1019B000000E0A6E000E0B6E000E0C6E1200D89018
:1019C000133614361536163617061766F8D7125022
:1019D000D8B408D0161E151E141E136C000E142247
:1019E0001522162213C009F014C00AF015C00BF01E
:1019F00016C00CF012003CC001F03DC002F03EC029
:101A000003F0000E056E420E046E72EC0FF043AE52
:101A100019D03E50800A800F05E1000E3D5C02E1C6
:101A2000000E3C5CD8B007D0000E3C6E800E3D6EC0
:101A3000BF0E3E6E1200000E3C6E000E3D6E000E9C
:101A40003E6E1200150E425C000E4358D8A007D01F
:101A50003CC03CF03DC03DF03EC03EF012003CC0FA
:101A600009F03DC00AF03EC00BF07AEC0CF00CC05F
:101A70001BF00BC01AF00AC019F009C018F0BAEC3C
:101A80000FF01AC041F019C040F018C03FF03CC040
:101A900001F03DC002F03EC003F03FC004F040C082
:101AA00005F041C006F02AEC0FF0D8B015D03FC0C9
:101AB0002EF040C02FF041C030F0000E316E800E8D
:101AC000326EBF0E336E10EC09F030C03EF02FC006
:101AD0003DF02EC03CF012003FC03CF040C03DF055
:101AE00041C03EF012007F0E0B140A100910D8A45A
:101AF00007D0000E096E000E0A6E000E0B6E12006B
:101B00000B507F0B0E6ED8900E340F6E106A10368D
:101B10000F500C2610500D220A34E836010B0E6EC1
:101B20000E500C26000E0D220DAE0ED0000E000140
:101B300000017D6F220E00017C6F000E096E000E09
:101B40000A6E000E0B6E12000D50800A7F0F000E01
:101B5000D8B40C5CD8A020D0000E000100017D6F2D
:101B6000220E00017C6F0B50800A800F05E1000EF1
:101B70000A5C02E1000E095CD8B007D0FF0E096EC6
:101B80007F0E0A6EFF0E0B6E1200FF0E096E7F0EA7
:101B90000A6E7F0E0B6E12000D340D300F6E0C307E
:101BA0000E6E0B500E18800B0E180B6E0CC00EF044
:101BB000010E0E160E320E320A500E187F0B0E1842
:101BC0000A6E09C009F00AC00AF00BC00BF012003F
:101BD00041C001F042C002F0000E046E030E036E1D
:101BE0008CEC10F001503F24436E02504020446EB4
:101BF00043C0F6FF44C0F7FF000EF86E0900F5CFB2
:101C000045F00900F5CF46F00900F5CF47F047C091
:101C10004AF046C049F045C048F044D048C020F0E2
:101C200049C021F04AC022F03CC01DF03DC01EF06A
:101C30003EC01FF067EC0BF01FC030F01EC02FF04D
:101C40001DC02EF0000E046E030E036E4106D8A0D8
:101C5000420641C001F042C002F08CEC10F001508D
:101C60003F24436E02504020446E43C0F6FF44C000
:101C7000F7FF000EF86E0900F5CF45F00900F5CF2B
:101C800046F00900F5CF47F047C033F046C032F0C8
:101C900045C031F010EC09F030C04AF02FC049F0D7
:101CA0002EC048F042504110D8A4B8D748C03CF0EC
:101CB00049C03DF04AC03EF0120000016B6F000EBB
:101CC000000100016C6F00016B5100016B6F000E91
:101CD000000100016D6F00016B5100016B6F000E80
:101CE00000010001746F00016B51000E0001000142
:101CF000766F000E0001756F000E00010001766F17
:101D0000000E0001756F000100017651800A800FFE
:101D1000090ED8B4755DD8B0120074C001F0C4ECDF
:101D200010F075C018F076C019F02EEC10F01AC043
:101D300070F019C06FF018C06EF06EC05CF06FC02C
:101D40005DF070C05EF0000E596E000E5A6E400ECF
:101D50005B6EF6EC09F05BC073F05AC072F059C0CC
:101D600071F071C009F072C00AF073C00BF07AEC28
:101D70000CF0095000010001742500010001746F8E
:101D8000820E00016B6FDD0EE82EFED76B2FFCD7A5
:101D900000D000010001754B762BB5D70450D8B4A4
:101DA00005D0015002100310D8A40CD0000E016E13
:101DB000000E026E000E036E1200042AD890033249
:101DC00002320132000E0114066E000E0214076E7C
:101DD000FE0E0314086E065007100810D8B40CD07D
:101DE000ECD7042A010E0126000E0222000E032267
:101DF000D890033202320132000E0114066E000E3A
:101E00000214076EFF0E0314086E06500710081028
:101E1000D8B406D0E6D70406D89001360236033689
:101E200002AEF9D704A0029ED89004320450086E86
:101E3000076A066A06500112075002120850031280
:101E40000550D8A4038E01C001F002C002F003C007
:101E500003F0120003AE16D001C007F002C008F074
:101E600003C009F0071E081E091E072A000E0822DB
:101E70000922000E0724016E000E0820026E800E5B
:101E80000920036E06AE16D004C007F005C008F0A6
:101E900006C009F0071E081E091E072A000E0822A8
:101EA0000922000E0724046E000E0820056E800E25
:101EB0000920066E000E011A000E021A800E031A87
:101EC000000E041A000E051A800E061A0450015C5A
:101ED0000550025806500358D8B002D0D8901200CE
:101EE000D88012007F0E031402100110D8A40FD066
:101EF00004C0D9FF05C0DAFF000EDE6E000EDD6EF5
:101F0000000E016E000E026E000E036E12000350F2
:101F10007F0B066ED8900634076E086A083604C038
:101F2000D9FF05C0DAFF07C0DEFF08C0DDFF0234BD
:101F3000E836010B066E065004C0D9FF05C0DAFF73
:101F4000DE12000EDD1204C0D9FF05C0DAFF820EDA
:101F5000DE26FF0EDD2203800382038403860388CE
:101F6000038A039C029E01C001F002C002F003C07C
:101F700003F012001C6E000E216E1C501C6E8E0EA3
:101F8000206E1C501BAE13D01B1E1A1E191E186C7F
:101F9000000E19221A221B221C6E010E216E1C50EB
:101FA00006D0D8901B321A3219321832202A000E6D
:101FB00018141C6E000E19141D6E000E1A141E6EDD
:101FC000FF0E1B141F6E1F501C101D101E10D8A4D6
:101FD000E8D718C001F019C002F01AC003F020C001
:101FE00004F021C005F0CEEC0EF003C01AF002C0E0
:101FF00019F001C018F012000D6E8E0E116E0D500A
:1020000006D0D8900C320B320A320932112A000E57
:1020100009140D6E000E0A140E6E000E0B140F6ED6
:10202000FF0E0C14106E10500D100E100F10D8A4CF
:10203000E8D709C001F00AC002F00BC003F011C0DC
:1020400004F00D6E000E056E0D50CEEC0EF003C0C8
:102050000BF002C00AF001C009F012001B6E000E66
:102060001C6E1B5019AE08D0186C191ED8B0192A56
:102070001B6E010E1C6E1B5018C001F019C002F03F
:10208000036A1B6E8E0E046E1B501CC005F0CEEC56
:102090000EF003C01AF002C019F001C018F01200CF
:1020A00042C0D9FF43C0DAFFDECF3CF0DECF3DF0C7
:1020B000DDCF3EF044C03FF045C040F046C041F0A7
:1020C000A9EC10F042C0D9FF43C0DAFF3CC0DEFFEC
:1020D0003DC0DEFF3EC0DDFFDD5212002EC0D9FF45
:1020E0002FC0DAFFDECF1DF0DECF1EF0DDCF1FF0F8
:1020F00030C020F031C021F032C022F067EC0BF08C
:102100002EC0D9FF2FC0DAFF1DC0DEFF1EC0DEFFCC
:102110001FC0DDFFDD52120001500302F3CF05F0B6
:10212000F4CF06F001500402F3CFF4FFF36AF3504A
:102130000526F450062202500302F3CFF4FFF36A9F
:10214000F3500526F450062205C001F006C002F047
:102150001200000E3F1A000E401A800E411A3CC0B9
:102160002EF03DC02FF03EC030F03FC031F040C0F7
:1021700032F041C033F010EC09F030C03EF02FC017
:102180003DF02EC03CF012000150FF0A896E015054
:10219000FF0A026E02AC03D08D50010902D08D50AF
:1021A000FE0B8D6E0150FF0A026E02AE04D08D5000
:1021B00002098D6E12008D50FD0B8D6E12007F0E88
:1021C000031402100110D8B406D0000E011A000E3C
:1021D000021A800E031A01C001F002C002F003C00F
:1021E00003F0120000017D6B7C6B0001F8EF10F032
:1021F000FDEC10F05DEC0EF0FDD7000E926E000EBF
:04220000966E1200C4
:020000040020DA
:08000000FFFFFFFFFFFFFFFF00
:020000040030CA
:0E000000FF211F3CFFBF85FF0FC00FE00F4028
:00000001FF
